:020000040800F2
:100000008006002099010008831700087D1500086C
:100010008117000881020008591F00080000000035
:10002000000000000000000000000000A71700080A
:100030009102000800000000A5170008A917000899
:10004000B3010008B3010008B3010008B3010008C0
:10005000B3010008B30100089302000899020008E8
:10006000B3010008B3010008B3010008B3010008A0
:10007000B3010008B3010008B3010008B301000890
:10008000B3010008B3010008B3010008B301000880
:10009000B3010008B3010008B3010008B301000870
:1000A000B3010008B3010008B3010008B301000860
:1000B000B3010008B3010008B3010008B301000850
:1000C000B3010008B3010008B3010008B301000840
:1000D000B3010008411F00084D1F0008B3010008CC
:1000E000B3010008B3010008B3010008B301000820
:1000F000C1180008B3010008B3010008B3010008EB
:10010000B3010008B301000871180008B30100082A
:10011000B3010008B3010008B5180008B3010008D6
:1001200085020008B3010008B3010008B30100080C
:10013000B3010008B3010008B3010008B3010008CF
:10014000B3010008B3010008B3010008B3010008BF
:10015000B3010008B3010008B3010008B3010008AF
:10016000B3010008B3010008B3010008B30100089F
:10017000B3010008B3010008B3010008000000004B
:10018000B3010008DFF80CD000F068F80048004721
:100190007D1F00088006002006488047064800476B
:1001A000FEE7FEE7FEE7FEE7FEE7FEE7FEE7FEE727
:1001B000FEE7FEE729180008850100082DE9F05F39
:1001C0000546002092469B468846064681464024C6
:1001D0001BE0284641464746224600F02FF853468A
:1001E0005A46C01A914110D311461846224600F0D3
:1001F00016F82D1A67EB01084F4622460120002110
:1002000000F00DF817EB00094E41201EA4F1010487
:10021000DFDC484631462A464346BDE8F09F202AA7
:1002200004DB203A00FA02F1002070479140C2F14D
:10023000200320FA03F3194390407047202A04DB7F
:10024000203A21FA02F00021704721FA02F3D0404F
:10025000C2F120029140084319467047064C074DF1
:1002600006E0E06840F0010394E807009847103486
:10027000AC42F6D3FFF78AFFE82200080823000803
:10028000FEE70000014800F01DB800005C010020FE
:100290007047012000F020B9022000F01DB990F84D
:1002A0003510022903D080214165012070470521C6
:1002B00080F835100068016821F00101016000201C
:1002C000704700002DE9F84304464FF00009CDF8CF
:1002D000009063484FF41651A56D0068B0FBF1F72C
:1002E0002E6894F85C20082101FA02F030420FD009
:1002F0002068026852070BD5026822F004020260EF
:1003000094F85C008140A960606D40F00100606578
:1003100094F85C104FF0010808FA01F0304208D060
:1003200021684969090604D5A860606D40F00200A3
:10033000606594F85C1004208840304208D0216841
:100340000968890704D5A860606D40F00400606505
:1003500094F85C1010208840304218D02168096859
:10036000090714D5A86020680168490304D500680E
:10037000000308D5A16C07E00168C90503D4016832
:1003800021F008010160216C09B12046884794F8EA
:100390005C1020208840304231D021680968C906AD
:1003A0002DD5A86094F8350005282068016806D08E
:1003B000490347D5006800031DD4616C1CE021F09F
:1003C000160101602068416921F080014161206CC3
:1003D00008B9A06C20B12068016821F00801016013
:1003E00094F85C103F208840A86084F8349084F82A
:1003F0003580216D1FE0E16B09B120468847606DB3
:1004000000282BD0606DC00714D0052084F835007B
:100410002068016821F0010101600098401C0090F3
:10042000B84203D820680068C007F6D184F8349039
:1004300084F83580E16C002910D001B02046BDE879
:10044000F04308470168C905D5D4016821F01001BF
:10045000016084F8349084F83580CCE7BDE8F883F7
:100460007400002031B500F033F9009C0546601C93
:1004700000D0641C00F02CF9401BA042FAD338BD18
:10048000144A00230128D17811D0022821D1022951
:100490001FD005291DD006291BD0072919D00829EE
:1004A00017D0936400210846136101F06FBE022942
:1004B0000FD005290DD006290BD0072909D008290E
:1004C00007D053649361D36100210846D36001F0E3
:1004D000F3BD704700000020044910B50A680242CD
:1004E00002D00860FFF7CCFF10BD0000143C0140B3
:1004F0002DE9F84FDFF89491002209F1040A0AF17E
:10050000040B4FF00F080BF1040E01260B68964008
:100510003340B34271D14C68022C01D0122C11D15E
:10052000D40800EB84073D6A5407E40E08FA04FC83
:1005300025EA0C05D1F810C00CFA04FC4CEA050CB5
:10054000C7F820C007685400032591F804C0A540EF
:100550000CF0030CAF430CFA04FC4CEA070CC0F897
:1005600000C04F68012F05D0022F03D0112F01D0FA
:10057000122F11D18768D1F80CC0AF430CFA04FCDC
:100580004CEA070CC0F808C04768B7430E79C6F3B9
:10059000001696403E434660C668AE438D68A5404F
:1005A0003543C5604C68E4006AD5394C256845F48C
:1005B00080452560246822F0030504F480440094FB
:1005C000344C2544D5F808789407260F08FA06F429
:1005D000A743314CA04201D1002429E02F4CA04276
:1005E00001D1012424E02E4CA04201D102241FE0BD
:1005F0002C4CA04202D103241AE041E02A4CA04234
:1006000001D1042414E0294CA04201D105240FE0BB
:10061000274CA04201D106240AE0264CA04201D179
:10062000072405E0244CA04201D1082400E009245D
:10063000B4403C43C5F80848D9F800404D464E68E0
:100640009C43F60300D51C432C60DAF80040554665
:100650004E689C43B60300D51C432C60DBF8004079
:100660005D464E689C43F60200D51C432C60DEF8C4
:10067000004075464E689C43B60200D51C432C6072
:10068000521C102AFFF441AFBDE8F88F003C014036
:1006900044380240003001400000024000040240A3
:1006A00000080240000C024000100240001402400A
:1006B00000180240001C024000200240006908406F
:1006C00000D0012070470AB1816170470904FBE73F
:1006D0000148006870470000780000200248016867
:1006E000491C016070470000780000200B4810B5DD
:1006F000016841F400710160016841F480610160AA
:10070000016841F480710160032000F075F8002059
:1007100000F006F800F018F8002010BD003C024080
:1007200010B5044607484FF47A710068B0FBF1F049
:1007300000F0FBFA00222146501E00F03DF8002098
:1007400010BD00007400002010B5032000F054F824
:10075000002211466FF00B0000F02EF80022114627
:100760006FF00A0000F028F8002211466FF009002F
:1007700000F022F800221146501F00F01DF8002260
:100780001146101F00F018F800221146901E00F0CC
:1007900013F80022BDE810401146501E00F00CB8BE
:1007A00000F01F02012191404009800000F1E0208B
:1007B000C0F8001170470000F0B40E4B1B68C3F383
:1007C0000223C3F10704042C00D904241D1D072DA6
:1007D00001D2002300E0DB1E012606FA04F56D1E9F
:1007E0000D409D409E40761E164045EA0601F0BC35
:1007F00000F0C8BF0CED00E0064A00F007011068E9
:100800004FF6FF03184040EA0120034908431060F7
:10081000704700000CED00E00000FA052DE9F047FC
:100820000D46040062D0DFF81891D9F80000EFB24D
:1008300000F00F00A84207D289F80070D9F8000034
:1008400000F00F00A84251D120683E4E810712D51A
:10085000400703D5306840F4E0503060207800074E
:1008600003D5306840F4604030603068A16820F003
:10087000F000084330602078C0072AD03149606812
:100880000839012810D00968022810D089070029EA
:100890002CDA316821F0030101433160FFF718FFC2
:1008A000804641F2883A0DE009688903EFE7890143
:1008B000EDE7FFF70DFFA0EB0801514502D903203A
:1008C000BDE8F0873068616800F00C00B0EB810F84
:1008D000EFD1D9F80010484601F00F01A94207D91D
:1008E0000770006800F00F00A84201D00120E7E780
:1008F0002078400705D53068E16820F4E0500843CF
:1009000030602078000706D53068216920F4604007
:1009100040EAC100306000F051F83168F02292FAEC
:10092000A2F201F0F001B2FA82F2D140064A515C23
:10093000C840064908600020FFF7F2FE0020BFE72C
:10094000003C024008380240D02200087400002019
:1009500001480068704700007400002008480949F9
:10096000006809684FF4E05292FAA2F201F4E051F3
:10097000B2FA82F2D140044A515CC840704700008C
:100980007400002008380240E022000808480949A5
:10099000006809684FF4604292FAA2F201F46041E3
:1009A000B2FA82F2D140044A515CC840704700005C
:1009B0007400002008380240E0220008154810B5F5
:1009C000006810F00C01144813D0144B04290FD008
:1009D00008290ED10F4C241F216801F03F02216825
:1009E000490207D52068C0F38810A0FB030106E088
:1009F000184610BD2168C1F38811A1FB0001002336
:100A0000FFF7DCFB2168C1F30141491C4900B0FB41
:100A1000F1F010BD083802400024F400001BB700BC
:100A20002DE9F84F04006FD02078DFF8D092B44D54
:100A3000C00735D0D9F800104846C1F3810101291B
:100A400008D00068C0F3810002280AD1281D006880
:100A5000400206D52868800322D560680028E2D0CD
:100A60001EE0A7492079891C0870606860B1FFF713
:100A70002FFE064604E0FFF72BFE801B642876D885
:100A800028688003F7D50BE0FFF722FE064604E056
:100A9000FFF71EFE801B6428F1D828688003F7D476
:100AA0002078984F80074FF0010B4FF000084ED58B
:100AB000D9F80010484611F00C0F4FF0F80A09D091
:100AC0000068C0F38100022816D18C48001F00681E
:100AD000400211D42868800702D5E068012813D1AC
:100AE00028689AFAAAF22169B2FA82F220F0F80094
:100AF0009140084328602AE0E068D0B1C7F800B010
:100B0000FFF7E6FD064605E0F5E0FFF7E1FD801B97
:100B10000228B4D828688007F7D528689AFAAAF27C
:100B200020F0F8012069B2FA82F290400143296076
:100B30000DE0C7F80080FFF7CBFD064604E0FFF7A5
:100B4000C7FD801B022812D828688007F7D42078B8
:100B5000000726D5DFF8A4A16B4861690AF16C0A89
:100B600081B1C0F800B0FFF7B3FD064605E076E0BE
:100B7000FFF7AEFD801B022871D8DAF8000080076D
:100B8000F6D50EE0C0F80080FFF7A2FD064604E0AF
:100B9000FFF79EFD801B022861D8DAF8000080076D
:100BA000F6D42078400746D554483830016841F0E3
:100BB000805101600068DFF854A100F0805000907F
:100BC000DAF8001041F48071CAF80010FFF780FDD8
:100BD000064604E0FFF77CFD801B02283FD8DAF8C8
:100BE0000000C005F6D5DFF814A1207A0AF1680AE2
:100BF0008AF80000A06878B1FFF76AFD064606E0B3
:100C0000FFF766FD811B41F2883081426BD8DAF82C
:100C100000008007F4D50EE0FFF75AFD064606E017
:100C2000FFF756FD811B41F2883081425BD8DAF82C
:100C300000008007F4D4A069F0B3D9F80010C1F324
:100C40008101022957D00228C7F8608003D0FFF73E
:100C50003FFD04464AE0FFF73BFD064605E042E063
:100C6000FFF736FD801B64283DD828688001F7D443
:100C7000D4E90701084347F6C07292FAA2F2616A0A
:100C8000B2FA82F29140A26A4FF0FF3303EB5202B4
:100C90004FF4403393FAA3F3B3FA83F39A4011432A
:100CA00008434FF0706292FAA2F2E16AB2FA82F25D
:100CB00091400843114900E01BE0091F0860C7F894
:100CC00060B0FFF705FD044604E0FFF701FD001BDF
:100CD000642808D828688001F7D50AE0FFF7F8FCF7
:100CE000001B642802D90320BDE8F88F2868800122
:100CF000F4D40020F8E70120F6E7000008380240AD
:100D00000038024000004742800E47420070004019
:100D10004FF0E0210428086903D020F004000861A6
:100D2000704740F00400FAE7704710B5401EB0F17C
:100D3000807F01D3012010BD4FF0E02460610F21BE
:100D4000601700F01FFD0020A06107202061002037
:100D500010BD10B5FFF7E8FF10BD7047704730B504
:100D600090F83C20012A20D0012380F83C30022258
:100D700080F83D200268546824F0700454600268D2
:100D800054680D682C4354600268946824F0800411
:100D900094600268946849680C43946080F83D3020
:100DA000002180F83C10084630BD022030BD0168AB
:100DB000CA6842F00102CA600068016841F001019E
:100DC0000160002070470168CA6822F00102CA6011
:100DD0000068016A41F21112114207D1016A9210B2
:100DE000114203D1016821F0010101600020704728
:100DF000704770B50446006801694FF00005C943AB
:100E0000890715D4C168C943890711D4E91E016156
:100E100001202077206880698007204602D0FFF7F4
:100E2000E7FF04E000F0BEF8204600F05DF925770A
:100E300020680169C943490717D4C168C9434907F4
:100E400013D46FF0040101610220207720688069CB
:100E500010F4407F204602D0FFF7CAFF04E000F004
:100E6000A1F8204600F040F9257720680169C943C0
:100E7000090716D4C168C943090712D46FF00801E5
:100E80000161042020772068C0698007204602D0D5
:100E9000FFF7AEFF04E000F085F8204600F024F9EB
:100EA000257720680169C943C90617D4C168C943B9
:100EB000C90613D46FF01001016108202077206863
:100EC000C06910F4407F204602D0FFF791FF04E094
:100ED00000F068F8204600F007F9257720680169DE
:100EE000C943C90708D1C168C943C90704D1891ECC
:100EF0000161204600F044F920680169C9430906F0
:100F000009D4C168C943090605D46FF080010161A5
:100F10002046FFF722FF20680169C943490609D42A
:100F2000C168C943490605D46FF0400101612046FC
:100F300000F027F920680169C94389060BD4C1680C
:100F4000C943890607D46FF0200101612046BDE83E
:100F50007040FFF703BF70BD10B50F4C0168002251
:100F600002230E4886B0A14207D101210091CDE9AC
:100F700001326946CDE903230AE0094CA14209D1B7
:100F800040210091CDE901320921CDE903216946D3
:100F9000FFF7AEFA06B010BD000C004000000240A2
:100FA000001C0040704770B5044690F83C000D46A8
:100FB00001280DD0012684F83C60022084F83D0011
:100FC00042B1042A18D0082A2AD00C2A4DD139E07F
:100FD000022070BD206800F0E9FC2068816941F0C2
:100FE000080181612068816921F004018161206824
:100FF00081692A69114311E0206800F003FD20682F
:10100000816941F4006181612068816921F4806116
:101010008161206881692A6941EA0221816124E0B5
:10102000206800F021FD2068C16941F00801C1611C
:101030002068C16921F00401C1612068C1692A6981
:10104000114311E0206800F03FFD2068C16941F4C0
:101050000061C1612068C16921F48061C1612068BB
:10106000C1692A6941EA0221C16184F83D6000201A
:1010700084F83C0070BD10B5040003D094F83D0026
:1010800010B107E0012010BD002084F83C0020468C
:1010900000F00CF8022084F83D00211D206800F0CB
:1010A00015FC012084F83D00002010BD08B5006843
:1010B0000B49884212D10B48016841F008010160D8
:1010C0000068002200F00800009001213220FFF7A4
:1010D00073FBBDE808403220FFF762BB08BD00008B
:1010E000000C0040403802407047000010B5044634
:1010F0000068012200F04EFC08482168814202D0BD
:101100000748814203D1486C40F40040486420689D
:10111000016841F001010160002010BD00000140A4
:101120000004014010B504460068002200F032FCC3
:10113000114841F2111221689310814202D00F48E8
:10114000814209D1086A104206D1086A184203D1C7
:10115000486C20F4004048642068016A114206D1BE
:10116000016A194203D1016821F0010101600120E7
:1011700084F83D00002010BD000001400004014043
:10118000704770477047000070B5026804461068E9
:10119000D168536910F00F0F51D003F0010501F42D
:1011A000907635435DD0C20705D0CA0503D5E26B02
:1011B00042F00102E263420705D5DA0703D0E26B91
:1011C00042F00202E263820705D5DA0703D0E26B40
:1011D00042F00402E263020705D5DA0703D0E26BAE
:1011E00042F00802E263E26B002A34D0800604D5A4
:1011F000880602D5204600F0A5FC20684069E16B16
:10120000C0F3801001F008010143204624D000F013
:101210008BFC2068416949061AD5416921F04001DB
:101220004161606BA0B11B490165606BFFF737F846
:10123000002810D0606B016DBDE870400847830640
:101240000FD58B060DD52046BDE8704000F07ABC66
:101250002046FFF797FF70BDFFF794FF0020E06383
:1012600070BD030606D50B0604D52046BDE87040C8
:1012700000F004BE4006F3D54806F1D5D1682046FB
:1012800021F04001D160202184F8391000F05EF98E
:1012900070BD0000191B000870B5040004D094F85C
:1012A0003900002510B106E0012070BD84F83850E7
:1012B000204600F023F8242084F839002068C16813
:1012C00021F40051C160204600F082FC20680169D1
:1012D00021F4904101612068416921F02A014161B6
:1012E0002068C16841F40051C160E563202084F8A2
:1012F000390084F83A00002070BD000070B51E4E21
:10130000016802220123032407251C4886B0B1424C
:1013100015D11B490E6846F010060E60096801F0F1
:101320001001059161028DE83E006946FFF7E0F883
:10133000002202212520FFF73FFA252018E0114E58
:10134000B14217D10E49091F0E6846F400360E60EF
:10135000096801F4003105910C218DE83E006946D1
:10136000FFF7C6F8002211462620FFF725FA2620AF
:10137000FFF716FA06B070BD0010014000000240F1
:10138000443802400044004090F83A30202B1DD1F0
:10139000D1B1CAB190F83830012B17D08162828563
:1013A000C2850021C163222280F83A2080F83810DB
:1013B00001684A6942F001024A610068C16841F46B
:1013C0009071C16000207047012070470220704773
:1013D00038B51D49884213D1086800240168406867
:1013E0000090012219491848FFF7CEFF1748184905
:1013F000851E0278A8880A540A78502A01D0AC8049
:1014000038BD012802D0142806D002E049784F29BF
:10141000F5D1401CA88038BD0879012804D00C28DB
:1014200002D0042807D00AE06861B1F80500A8607E
:1014300000F028FE03E004206861686BA860A868DB
:101440004628DCDC6C61DAE7D400002002000020D2
:101450007C0000202DE9F843044690F839001E4630
:1014600017460D46202850D1A5B19FB194F83800F9
:1014700001284AD0012084F838004FF00008C4F851
:101480003C80212084F83900FFF722F9A7848146A7
:10149000E78426E00120BDE8F883E08C401EE0846C
:1014A000A0684B46B0F5805F4FF000024FF080011E
:1014B0002046009603D000F012FDE8B90DE000F0E0
:1014C0000EFDC8B928882168C0F30800486020696B
:1014D00008B16D1C05E0AD1C03E0216815F8010B97
:1014E0004860E08C0028D8D14B460022402120469D
:1014F000009600F0F4FC08B10320CCE7202084F82B
:10150000390084F838800020C5E70220C3E790F84E
:101510003930202B18D1A9B1A2B190F83830012B65
:1015200012D001628284C2840021C163212280F82A
:10153000392080F838100068C16841F08001C1602E
:10154000002070470120704702207047094908B504
:1015500088420DD108680168406800900122064960
:101560000448FFF7D4FF0448801EC16A491CC162C9
:1015700008BD0000D400002002000020FEE70000AB
:101580002DE9F047464886B00024016841F080010B
:101590000160016801F080010591016841F00401DA
:1015A0000160016801F004010591016841F0010149
:1015B0000160016801F001010591016841F0080135
:1015C0000160016801F008010591016841F0100116
:1015D00001600068DFF8CC8000F010000590002268
:1015E00030214046FFF76FF8DFF8BC904FF44056CB
:1015F000002231464846FFF766F800221821484687
:10160000FFF761F8DFF8A4A0002210215046FFF791
:101610005AF8102701250097CDE901546946404644
:101620000394FEF765FF20200090CDE90154694640
:1016300040460394FEF75CFF0096CDE901546946ED
:1016400048460394FEF754FF194E6946CDE900560B
:1016500050460295FEF74CFF0220CDE90006694690
:1016600002945046FEF744FF0097CDE901656946B4
:101670005046FEF73DFF18200090CDE90164694611
:1016800048460394FEF734FF8020CDE90005CDE9FC
:10169000025469465046FEF72BFF06B0BDE8F087BE
:1016A0003038024000080240000C024000100240A6
:1016B0000000111010B51A488AB0184901603B218A
:1016C0000024C0E9011440F2E731C0E90314846149
:1016D000FFF7D1FC18B1412112A000F03EFC0794A5
:1016E00007A90F480894FFF73AFB18B148210DA04D
:1016F00000F033FC6020CDE900040294002269462A
:1017000007480494FFF74FFC18B1512105A000F0E1
:1017100024FC0348FFF720FC0AB010BD000C004079
:10172000BC0100202E2E2F5372632F74696D2E631F
:10173000000000000D4810B50B4901604FF4E12195
:101740004160002181600C22C160C0E90412816106
:10175000C161FFF7A1FD002805D0BDE8104056216A
:1017600003A000F0FABB10BD00440040D4000020EC
:101770002E2E2F5372632F75736172742E630000C7
:10178000FEE770470907090E002806DA00F00F008F
:1017900000F1E02080F8141D704700F1E02080F88F
:1017A000001470477047704710B5FEF797FFBDE80B
:1017B0001040FFF7CEBA10B592B001200090019012
:1017C00002248005CDE906400A200890C820CDE912
:1017D000090405200B906846FFF722F900B1FEE7E7
:1017E0000F20CDE90C0400200E904FF4A0500F9074
:1017F0004FF48050109003210CA8FFF70FF800B1B0
:10180000FEE7FFF7A5F84FF47A71B0FBF1F0FFF7B0
:101810008CFA0420FFF77CFA00221146501EFEF7D6
:10182000CBFF12B010BD00000D48016841F001016E
:1018300001600B4A0021083211600268094B1A400E
:101840000260031D084A1A60026822F480220260C6
:1018500003480C30016005495806086070470000D5
:1018600000380240FFFFF6FE1030002408ED00E0D3
:101870000C4910B5086840F22B32401C08609042B9
:101880000BD3094A1068401C106000220A60074907
:101890000968884201D800F001FDBDE81040044805
:1018A000FFF7A7BA2400002028000020080000202D
:1018B000BC0100200148FFF79CBA0000FC01002099
:1018C0000148FFF796BA00003C020020F0B502681C
:1018D000254D264E264FDFF89CC0274B4FF0804EFB
:1018E000A84209D0704507D0B04205D0B84203D015
:1018F000604501D0984203D122F070044A68224327
:10190000A8421BD0704519D0B04217D0B84215D0AC
:10191000604513D0984211D0184CA0420ED0184CFC
:10192000A0420BD0174CA04208D0174CA04205D0C3
:10193000164CA04202D0164CA04203D122F44074AF
:10194000CA6822434C6922F08002144304608A680A
:10195000C2620A688262A84201D0984201D1096934
:10196000016301214161F0BD00000140000400401D
:1019700000080040000C004000040140004001400D
:10198000004401400048014000180040001C004095
:101990000020004010B50123046A8B409C43046280
:1019A000036A8A401343036210BD000030B5026A27
:1019B00022F001020262056A426883690C6823F022
:1019C00073031C438B6825F002052B430B4DA84283
:1019D00002D00B4DA8420BD123F00805CB6822F4AE
:1019E00040722B434D6923F0040315438A692A434F
:1019F0004260846149684163036230BD0000014078
:101A00000004014030B5026A22F010020262036A4B
:101A1000426884690D6824F4E64444EA05248D682C
:101A200023F0200343EA05130D4DA84202D00D4DCB
:101A3000A8420ED1CD6823F0800343EA05134D6917
:101A400022F4406242EA85028D6923F0400342EAB3
:101A500085024260846149688163036230BD000091
:101A6000000001400004014030B5026A22F4807297
:101A70000262036A4268C46923F4007324F07305A8
:101A80000C682C438D6843EA05230D4DA84202D013
:101A90000C4DA8420ED1CD6823F4006343EA052320
:101AA0004D6922F4405242EA05128D6923F48063A5
:101AB00042EA05124260C4614968C163036230BDF5
:101AC000000001400004014030B5026A22F4805257
:101AD0000262036A4268C4690D6824F4E64444EA79
:101AE00005248D6823F4005343EA0533084DA842CA
:101AF00002D0084DA84204D14D6922F4804242EA46
:101B000085124260C46149680164036230BD00000F
:101B1000000001400004014010B5806B0021C18528
:101B2000C184FFF72FFB10BD0168CA6822F49072D0
:101B3000CA6001684A6922F001024A61202180F8E6
:101B40003A10704710B590F83A10222901D00220BF
:101B500010BD8168B1F5805F11D00169002901686D
:101B60001FD0496801F07F03816A4A1C82620B70B2
:101B7000C18D491E0904090CC18518D026E00269EF
:101B8000816A002A0268526805D0D2B20A80816A4E
:101B9000491C8162ECE7C2F308020A80816A891C51
:101BA000F7E74A68816A4B1C83620A70E0E70168C4
:101BB000CA6822F49072CA6001684A6922F0010280
:101BC0004A61202180F83A10FFF702FC002010BD86
:101BD0002DE9F04104460068016921F44052E168B2
:101BE000114301612068C16849F20C629143236985
:101BF000A268E5691A4363692B431A430A43C2602A
:101C000020684169A26921F440710A434261E06998
:101C10006425B0F5004F974A974920684FF0320885
:101C20003FD0884201D090427CD1FEF7AFFE00EB5E
:101C3000C00101EB001061688900B0FBF1F6FEF70E
:101C4000A5FE00EBC00101EB001061688900B0FB4C
:101C5000F1F0B0FBF5F06FF01801484306EB80019E
:101C600008EB0110B0FBF5F000F0F006FEF78EFE79
:101C700000EBC00101EB001061688900B0FBF1F0DE
:101C8000B0FBF5F006EB0016FEF780FE00EBC0019E
:101C900001EB001061688900B0FBF1F7FEF776FEFA
:101CA000D2E0884201D090423DD1FEF76FFE00EBBA
:101CB000C00101EB001061684900B0FBF1F0B0FB1E
:101CC000F5F00601FEF762FE00EBC00101EB00102B
:101CD00061684900B0FBF1F7FEF758FE00EBC00168
:101CE00001EB001061684900B0FBF1F0B0FBF5F0CA
:101CF0006FF01801484307EB800108EBC100B0FB0F
:101D0000F5F000F0F80006EB4006FEF73FFE00EBB2
:101D1000C00101EB001061684900B0FBF1F7FEF76C
:101D200035FE3CE055E0FEF719FE00EBC00101EB8B
:101D3000001061684900B0FBF1F0B0FBF5F006015E
:101D4000FEF70CFE00EBC00101EB001061684900DA
:101D5000B0FBF1F7FEF702FE00EBC00101EB001053
:101D600061684900B0FBF1F0B0FBF5F06FF01801CD
:101D7000484307EB800108EBC100B0FBF5F000F031
:101D8000F80006EB4006FEF7E9FD00EBC00101EBB1
:101D9000001061684900B0FBF1F7FEF7DFFD00EBD2
:101DA000C00101EB001061684900B0FBF1F0B0FB2D
:101DB000F5F06FF01801484307EB800108EBC10014
:101DC000B0FBF5F000F00700216830448860BDE802
:101DD000F081FEF7C3FD00EBC00101EB001061686C
:101DE0008900B0FBF1F6FEF7B9FD00EBC00101EB95
:101DF000001061688900B0FBF1F0B0FBF5F06FF006
:101E00001801484306EB800108EB0110B0FBF5F028
:101E100000F0F006FEF7A2FD00EBC00101EB0010A0
:101E200061688900B0FBF1F0B0FBF5F006EB00163D
:101E3000FEF794FD00EBC00101EB00106168890022
:101E4000B0FBF1F7FEF78AFD00EBC00101EB0010DB
:101E500061688900B0FBF1F0B0FBF5F06FF018019C
:101E6000484307EB800108EB0110B0FBF5F000F0F0
:101E70000F00A9E7001401400010014090F839104C
:101E8000212901D0022070478168B1F5805F016A85
:101E90000BD04A1C0262026809785160C18C491E4D
:101EA0000904090CC1840ED017E009880268C1F347
:101EB0000801516001690029016A02D0491C0162D0
:101EC000ECE7891CFBE70168CA6822F08002CA605F
:101ED0000068C16841F04001C160002070472DE9F1
:101EE000F0411E46174688460446069D1CE0681CC5
:101EF0001AD025B1FEF7ECFB801BA84214D920684C
:101F0000C16821F4D071C1602068416921F00101EC
:101F10004161202084F8390084F83A00002084F8D8
:101F200038000320BDE8F0812068016838EA01002C
:101F300004D00020B842DAD00020F3E70120F9E70E
:101F40000148FFF721B90000940000200148FFF785
:101F50001BB90000D4000020FEE7FEE702E008C83D
:101F6000121F08C1002AFAD170477047002001E013
:101F700001C1121F002AFBD170470000FEF7B6FB1B
:101F8000FFF719FCFFF7FCFAFFF794FBFFF7D2FB12
:101F900001222C492C48FFF7F7F92A4C002501268D
:101FA000A41E60690028FCD0216B41B1012908D032
:101FB000656165622562A562A5602563F1E7266417
:101FC00004E00C280BD04FF0FF302064A068A26A18
:101FD000A0F146039A4206D200F048F9E1E7A06872
:101FE00065616063DDE7824202D200F027F9D8E73D
:101FF000206C012811D00129D3D110211348FEF7FC
:102000005DFB20700028CCD194F84000002140B244
:1020100000F052F8C8202063C3E70021304600F0EA
:102020004BF84FF4FA70FEF71DFA00F011F84FF478
:10203000FA60FEF717FA65622562A562206B401C04
:10204000E9E7000002000020D40000200010024058
:102050001CB550208DF800004F208DF80100532052
:102060008DF8020049208DF8030012208DF804003D
:102070001423052269460248FFF7ECF91CBD000055
:10208000D40000201CB550208DF800004F208DF8A2
:10209000010053208DF8020049208DF80300132021
:1020A0008DF804001423052269460248FFF7D2F98F
:1020B0001CBD0000D400002070B50C462E498AB02B
:1020C00091F90120824202D1CA88A24247D04870C9
:1020D0002A4BCC80012802D0401C02D009E001220A
:1020E00000E0002210211846FEF7EDFA0120FEF76D
:1020F000B9F9012C35D900212148FFF713F8204800
:10210000FEF761FE1E481F49002501603B21C0E922
:1021100001151D4EB6FBF4F1491EC0E903154561DA
:10212000FEF7A9FF079507A915480895FEF717FEC2
:1021300060200090B6FBF4F04008CDE901050022D4
:1021400069460F480495FEF72EFF0D48FEF704FF81
:102150000B48FEF72CFE00210948FEF7C7FF0AB026
:1021600070BD002CFBD100210548FEF7DBFF0448C1
:10217000FEF729FEF3E700000000002000080240FF
:10218000BC010020000C004040420F0070B5274BFE
:102190008AB00C46012802D0401C02D006E0012281
:1021A00000E0002220211846FEF78DFA012C31D9DB
:1021B00020481F49002501603B21C0E901151E4E42
:1021C000B6FBF4F1491EC0E90315FEF754FF07956D
:1021D00007A918480895FEF7C2FD60200090B6FBDD
:1021E000F4F04008CDE90105002269461148049544
:1021F000FEF7D9FE00210F48FEF778FF0D48FEF7E5
:10220000ABFE0C48FEF7D3FD00210A48FEF76EFF37
:102210000AB070BD002CFBD100210648FEF782FFFA
:102220000AB00448BDE87040FEF7CDBD000802408A
:10223000001C00403C02002040420F000A4A10B53A
:10224000106AB0F58C5F0DD9A0F5207081B21062D4
:1022500092F8400040B2FFF72FFFBDE81040282061
:10226000FEF700B910BD0000000000200A4A10B5BA
:10227000106AB0F5164F0DD200F5207081B21062D1
:1022800092F8400040B2FFF717FFBDE810401E2053
:10229000FEF7E8B810BD0000000000201CB550207B
:1022A0008DF800004F208DF8010053208DF80200BA
:1022B00049208DF8030011208DF804001423052215
:1022C00069460248FFF7C6F81CBD0000D400002094
:1022D00000000000000000000102030406070809D6
:1022E0000000000001020304082300080000002091
:1022F0007C0000005C1F0008842300087C00002094
:10230000040600006C1F0008000000000000000030
:10231000B004000000000000000000000000000009
:1023200000000000000000000000000000000000AD
:10233000000000000000000000000000000000009D
:10234000000000000000000000000000000000008D
:10235000000000000000000000000000000000007D
:102360003D0000009B010000F9020000570400003E
:10237000606000000000000000000000001BB700CB
:042380000000000059
:040000050800018569
:00000001FF
