:020000040800F2
:1000000048080020990100083126000865220008F0
:100010002D260008E1020008C93000080000000099
:10002000000000000000000000000000752600082D
:10003000F5020008000000006D2600087726000881
:10004000B3010008B3010008B3010008B3010008C0
:10005000B3010008B3010008F7020008010300081B
:10006000B3010008B3010008B3010008B3010008A0
:10007000B3010008B3010008B3010008B301000890
:10008000B3010008B3010008B3010008B301000880
:10009000B3010008B3010008B3010008B301000870
:1000A000B3010008B3010008B3010008B301000860
:1000B000B301000871270008B3010008B30100086C
:1000C000B3010008B3010008B3010008B301000840
:1000D000B3010008B3010008B9300008B3010008FB
:1000E000B3010008B3010008B3010008B301000820
:1000F00091270008B3010008B3010008B30100080C
:10010000B3010008B3010008B3010008B3010008FF
:10011000B3010008B301000881270008B3010008FB
:10012000E5020008B3010008B3010008B3010008AC
:10013000B3010008B3010008B3010008B3010008CF
:10014000B3010008B3010008B3010008B3010008BF
:10015000B3010008B3010008B3010008B3010008AF
:10016000B3010008B3010008B3010008B30100089F
:10017000B3010008B3010008B3010008000000004B
:10018000B3010008DFF80CD000F098F800480047F1
:100190007932000848080020064880470648004792
:1001A000FEE7FEE7FEE7FEE7FEE7FEE7FEE7FEE727
:1001B000FEE7FEE71D270008850100082DE9F05F36
:1001C0000546002092469B468846064681464024C6
:1001D0001BE0284641464746224600F05EF853465B
:1001E0005A46C01A914110D311461846224600F0D3
:1001F00045F82D1A67EB01084F46224601200021E1
:1002000000F03CF817EB00094E41201EA4F1010458
:10021000DFDC484631462A464346BDE8F09FD2B26D
:1002200001E000F8012B491EFBD270470022F6E7DF
:1002300010B513460A4604461946FFF7F0FF20465C
:1002400010BD421C10F8011B0029FBD1801A704719
:1002500030B50B46014600202022012409E021FA96
:1002600002F59D4205D303FA02F5491B04FA02F593
:100270002844151EA2F10102F1DC30BD202A04DB66
:10028000203A00FA02F1002070479140C2F12003A9
:1002900020FA03F3194390407047202A04DB203AE8
:1002A00021FA02F00021704721FA02F3D040C2F196
:1002B000200291400843194670470000064C074D44
:1002C00006E0E06840F0010394E807009847103426
:1002D000AC42F6D3FFF75AFF3C3A00085C3A0008FC
:1002E00000BFFEE710B5024800F026F910BD00007F
:1002F000C8020020704710B5012000F009FB10BDB6
:1003000010B5022000F004FB10BD000010B5002263
:1003100001B909E0012901D10A0205E0022901D150
:100320000A0201E04FF44072114B1B6823F4407342
:100330000F4C236023461B681343236023461B682E
:1003400023F0F803236023461B68F82494FAA4F4EE
:10035000B4FA84F400FA04F444F002042343044C95
:10036000236023461B6843F48033236010BD0000E4
:10037000103C0240074A126822F44072054B1A6092
:100380001A4612681A601A46126842F001021A6090
:1003900001707047103C024010B50949096821F40A
:1003A0004071074C21602146096841F44071216089
:1003B0002146096841F0010121600260436010BDDF
:1003C000103C0240084A126822F44072064B1A6040
:1003D0001A46126842F480721A601A46126842F095
:1003E00001021A6001807047103C0240084A1268FE
:1003F00022F44072064B1A601A46126842F40072E8
:100400001A601A46126842F001021A6001607047D1
:10041000103C02402348006800F0100040B1224820
:10042000C06940F008002049C86110201D490860DB
:100430001C48006800F0200040B11B48C06940F033
:1004400004001949C8612020164908601548006851
:1004500000F0400040B11448C06940F00200124969
:10046000C86140200F4908600E48006800F0800015
:1004700040B10D48C06940F001000B49C8618020BF
:10048000084908600748006800F0020040B10648CB
:10049000C06940F010000449C861022001490860A9
:1004A000704700000C3C02402804002070B5044650
:1004B000002500201449C86100F04CFB054609E006
:1004C000601C38B124B100F045FB401BA04201D9AB
:1004D000032070BD0D48006800F480300028EFD183
:1004E0000A48006800F0010010B1012007490860C7
:1004F0000648006800F0F20018B1FFF78BFF0120FA
:10050000E7E70020E5E70000280400200C3C02405B
:10051000014691F83500022803D08020486501206B
:100520007047052081F835000868006820F0010058
:100530000A6810600020F3E7F8B504460020009038
:100540008C4800684FF41651B0FBF1F7A56D2E688A
:1005500094F85C1008208840304098B1206800680A
:1005600000F0040070B12068006820F004002168E9
:10057000086094F85C1008208840A860606D40F026
:100580000100606594F85C1001208840304068B13B
:100590002068406900F0800040B194F85C100120B0
:1005A0008840A860606D40F00200606594F85C10BF
:1005B00004208840304068B12068006800F00200E4
:1005C00040B194F85C1004208840A860606D40F051
:1005D0000400606594F85C1010208840304078B3C7
:1005E0002068006800F0080050B394F85C101020F8
:1005F0008840A8602068006800F4802080B12068EE
:10060000006800F4002028B9206CC8B12046216C95
:10061000884715E0A06C98B12046A16C88470FE090
:100620002068006800F4807028B92068006820F015
:10063000080021680860206C10B12046216C8847B2
:1006400094F85C10202088403040002865D0206855
:10065000006800F0100000285FD094F85C102020A3
:100660008840A86094F83500052828D120680068E3
:1006700020F01600216808602068406920F08000A2
:1006800021684861206C08B9A06C28B12068006816
:1006900020F008002168086094F85C103F20884032
:1006A000A86000BF002084F8340000BF012084F857
:1006B0003500206D10B12046216D8847F8BD2068B7
:1006C000006800F4802080B12068006800F40020F9
:1006D00028B9606C10B12046616C88471DE0E06B62
:1006E000D8B12046E16B884717E02068006800F425
:1006F000807068B92068006820F0100021680860E8
:1007000000BF002084F8340000BF012084F83500C9
:10071000E06B10B12046E16B8847606D38B3606DC7
:1007200000F00100F0B1052084F835002068006871
:1007300020F001002168086000BF0098401C009074
:10074000B84200D905E02068006800F001000028E8
:10075000F3D100BF00BF002084F8340000BF0120A7
:1007600084F83500E06C10B12046E16C884700BF8A
:10077000A4E700000001002031B500F0EBF90546C8
:10078000009C601C00B1641C00BF00F0E3F9401B3A
:10079000A042FAD338BD00000348006840F0004092
:1007A0000149086000207047103C02402DE9F041EB
:1007B00006460F4614461D464FF0010800BF1F486D
:1007C000007E012802D10220BDE8F08101201B49F2
:1007D000087600BF4CF25030FFF768FE8046B8F153
:1007E000000F23D126B9E1B23846FFF7C3FD12E06E
:1007F000012E04D1A1B23846FFF7E4FD0BE0022E32
:1008000004D121463846FFF7F1FD04E022462B468D
:100810003846FFF7C1FD4CF25030FFF747FE8046E7
:100820000748006820F001000549086000BF00206B
:100830000249087600BF4046C6E7000028040020B1
:10084000103C02400748006800F0004030B1064804
:1008500004490C3908600548086001E00120704730
:100860000020FCE7103C024023016745AB89EFCD37
:1008700010B50446012C20D11E48007802281CD057
:100880001C480078052818D01A480078062814D08B
:1008900018480078072810D01648007808280CD08F
:1008A0000020154908601549086015490860154978
:1008B00008600021084602F0CDFF022C18D10D4837
:1008C0000078022814D00B480078052810D0094879
:1008D000007806280CD007480078072808D005487B
:1008E0000078082804D000200749086007490860FC
:1008F00010BD00000A0000205400002098000020D5
:100900009C0000200C000020580000201000002057
:1009100010B5044604480068204020B10248046035
:100920002046FFF7A5FF10BD143C0140F8B5024674
:100930000B460025002400200021E1E0012606FAF4
:1009400001F51E6806EA0504AC4273D15E68022E0A
:1009500002D05E68122E13D1CF0802F1200656F89D
:1009600027004E07F70E0F26BE40B0434F07FF0E7D
:100970001E69BE403043CF0802F1200646F827002A
:1009800010684F000326BE40B0431E7906F00306F0
:100990004F00BE40304310605E68012E08D05E6894
:1009A000022E05D05E68112E02D05E68122E13D181
:1009B00090684F000326BE40B0434F00DE68BE4043
:1009C00030439060506801268E40B0431E79C6F3D4
:1009D00000168E4030435060D0684F000326BE4062
:1009E000B0434F009E68BE403043D0605E6806F062
:1009F0008056B6F1805FA8D100BF00260096424E17
:100A0000366846F48046404F3E603E46366806F4FF
:100A10008046009600BF00BF3C4E8F0856F8270066
:100A20008E07370F0F26BE40B043394EB24202D177
:100A3000002629E063E0374EB24201D1012623E0CF
:100A4000354EB24201D102261EE0344EB24201D1EF
:100A5000032619E0324EB24201D1042614E0314E91
:100A6000B24201D105260FE02F4EB24201D1062637
:100A70000AE02E4EB24201D1072605E02C4EB242CA
:100A800001D1082600E009268F073F0FBE40304302
:100A90001E4E8F0846F82700264E3068A0435E6839
:100AA00006F48036B6F5803F00D12043214E3060F9
:100AB000361D3068A0435E6806F40036B6F5003F88
:100AC00000D120431B4E361D3060361D3068A043D8
:100AD0005E6806F48016B6F5801F00D12043154EDF
:100AE00008363060361D3068A0435E6806F4001694
:100AF000B6F5001F00D120430E4E0C363060491C65
:100B00001029FFF41BAFF8BD4438024008380140FB
:100B1000000002400004024000080240000C0240B5
:100B2000001002400014024000180240001C024065
:100B300000200240003C0140024613690B400BB10B
:100B4000012000E0002070470AB1816101E00B0440
:100B5000836170470148006870470000040100206D
:100B600002480068401C01490860704704010020E9
:100B700010B50D48006840F400700B490860084645
:100B8000006840F4806008600846006840F48070A7
:100B90000860032000F094F8002000F007F800F04F
:100BA00019F8002010BD0000003C024070B504465A
:100BB000074800684FF47A71B0FBF1F5284600F061
:100BC000C4FB00222146501E00F03CF8002070BDFE
:100BD0000001002010B5032000F072F80022114639
:100BE0006FF00B0000F02EF8002211466FF00A00A3
:100BF00000F028F8002211466FF0090000F022F8FA
:100C000000221146501F00F01DF800221146101F4F
:100C100000F018F800221146901E00F013F8002290
:100C20001146501E00F00EF810BD00BF00F01F026C
:100C3000012191404209920002F1E022C2F8001124
:100C400000BF70472DE9F05F80460D46164600272D
:100C500001F0F0FC074639462A46334601F007000A
:100C6000C0F1070ABAF1040F02D94FF0040A01E0FB
:100C7000C0F1070AD14600F1040ABAF1070F02D207
:100C80004FF0000A01E0A0F1030AD4464FF0010A38
:100C90000AFA09FAAAF1010A0AEA020A0AFA0CFA9D
:100CA0004FF0010B0BFA0CFBABF1010B0BEA030B42
:100CB0004AEA0B042146404601F0C4FCBDE8F09F1F
:100CC00000BF00F00702064B19684FF6FF031940FA
:100CD000044B0B4343EA0221014B196000BF7047EC
:100CE0000CED00E00000FA0570B504460D460CB9A5
:100CF000012070BD5948006800F00F00A84209D2D9
:100D000056490D700846006800F00F00A84201D057
:100D10000120EEE7207800F0020002281DD12078A3
:100D200000F00400042805D14D48006840F4E0506C
:100D30004B490860207800F00800082805D1484891
:100D4000006840F46040464908604548006820F06B
:100D5000F000A168084342490860207800F00100D3
:100D600090B36068012807D13D4808380068C0F397
:100D70004040A0B90120BCE76068022807D138488C
:100D800008380068C0F3406048B90120B1E7344832
:100D900008380068C0F3400008B90120A9E73048CE
:100DA000006820F00300616808432D490860FFF7E0
:100DB000D1FE064609E0FFF7CDFE801B41F28831E7
:100DC000884202D9032094E707E02548006800F034
:100DD0000C006168B0EB810FEDD12048006800F095
:100DE0000F00A84209D91D490D700846006800F09F
:100DF0000F00A84201D001207BE7207800F004001A
:100E0000042807D11648006820F4E050E168084340
:100E100013490860207800F00800082808D110481D
:100E2000006820F46040216940EAC1000C49086074
:100E300000F04EF80A49096801F0F001F02292FA38
:100E4000A2F2B2FA82F2D140064A515CC840064989
:100E500008600020FFF7AAFE00204AE7003C02409D
:100E600008380240243A00080001002001480068C8
:100E7000704700000001002000B5FFF7F7FF0749A9
:100E8000096801F4E0514FF4E05292FAA2F2B2FA8A
:100E900082F2D140024A515CC84000BD083802408D
:100EA000343A000800B5FFF7E1FF0749096801F48B
:100EB00060414FF4604292FAA2F2B2FA82F2D1405B
:100EC000024A515CC84000BD08380240343A00086C
:100ED0002DE9F047002400250026A146254800689A
:100EE00000F00C0020B1042805D008283AD105E014
:100EF000DFF8849039E0DFF8849036E01D48001F69
:100F0000006800F03F041B48001F006800F48000E8
:100F100078B11A481749091F0968C1F38811A0FB65
:100F200001700146224600233846FFF747F905467F
:100F30000EE011480F49091F0968C1F38811A0FB91
:100F400001700146224600233846FFF737F905466F
:100F50000848001F0068C0F30140401C4600B5FB74
:100F6000F6F902E0DFF8109000BF00BF4846BDE888
:100F7000F0870000083802400024F400001BB7008E
:100F800038B504460CB9012038BD207800F00100C6
:100F9000002848D0DE48006800F00C0004280DD07E
:100FA000DB48006800F00C00082811D1D848001F69
:100FB000006800F48000B0F5800F09D1D4480838EB
:100FC0000068C0F3404070B3606860BB0120DBE79D
:100FD0002079CF49891F0870606890B1FFF7BAFD8A
:100FE000054606E0FFF7B6FD401B642801D9032043
:100FF000CAE7C74808380068C0F340400028F1D06D
:1010000011E0FFF7A7FD054606E0FFF7A3FD401B33
:10101000642801D90320B7E7BD4808380068C0F349
:1010200040400028F1D1207800F00200022869D168
:10103000B748006800F00C0058B1B548006800F0EF
:101040000C00082821D1B248001F006800F480007D
:10105000D8B9AF4808380068C0F3400020B1E06854
:10106000012801D001208FE7A9480838006820F046
:10107000F800F82292FAA2F2B2FA82F221699140C3
:101080000843A349083908603CE0E06828B3012020
:10109000A0490860FFF75EFD054606E0FFF75AFD30
:1010A000401B022801D903206EE7994808380068E0
:1010B000C0F340000028F1D095480838006820F0BF
:1010C000F800F82292FAA2F2B2FA82F22169914073
:1010D00008438F490839086014E000208D490860F2
:1010E000FFF738FD054606E0FFF734FD401B0228F8
:1010F00001D9032048E7864808380068C0F340005B
:101100000028F1D1207800F0080008282CD160696F
:10111000A8B1012080490860FFF71CFD054606E0E4
:10112000FFF718FD401B022801D903202CE778485F
:101130006C300068C0F340000028F1D014E00020BB
:1011400075490860FFF706FD054606E0FFF702FD5A
:10115000401B022801D9032016E76D486C30006857
:10116000C0F340000028F1D1207800F004000428EA
:1011700057D100BF0020009065483830006840F02B
:1011800080506349383108600846006800F080509C
:10119000009000BF00BF6148006840F480705F4964
:1011A0000860FFF7D7FC054606E0FFF7D3FC401BBD
:1011B000022801D90320E7E65848006800F480704F
:1011C0000028F2D0207A524968310870A068A0B196
:1011D000FFF7C0FC054608E0FFF7BCFC401B41F2EE
:1011E0008831884201D90320CEE64948683000683A
:1011F000C0F340000028EFD013E0FFF7ABFC05463A
:1012000008E0FFF7A7FC401B41F28831884201D972
:101210000320B9E63E4868300068C0F3400000286B
:10122000EFD1A069F0B33A48006800F00C0008283C
:1012300069D0A069022850D1002036490866FFF71E
:1012400089FC054606E0FFF785FC401B642801D9B0
:10125000032099E62E4808380068C0F34060002853
:10126000F1D1D4E90701084347F6C07292FAA2F21D
:10127000B2FA82F2616A914008430122A16AC2EB8C
:1012800051014FF4403292FAA2F2B2FA82F2914046
:1012900008434FF0706292FAA2F2B2FA82F2E16A67
:1012A000914000E031E008431949091F086001201E
:1012B00018490866FFF74EFC054606E0FFF74AFCB2
:1012C000401B642801D903205EE6114808380068F5
:1012D000C0F340600028F1D017E000200D490866F7
:1012E000FFF738FC054606E0FFF734FC401B642896
:1012F00001D9032048E6064808380068C0F340607A
:101300000028F1D101E001203EE600203CE600008B
:101310000838024000004742800E474200700040FB
:10132000042808D14FF0E021096941F004014FF091
:10133000E022116107E04FF0E021096921F004018A
:101340004FF0E02211617047704770B504462546A2
:10135000681EB0F1807F01D301200FE0681E4FF0BE
:10136000E02148610F214FF0FF3001F06BF90020C0
:101370004FF0E021886107200861002070BD10B5A2
:10138000FFF7E2FF10BD70477047024600BF92F8BA
:101390003C00012801D102207047012082F83C0066
:1013A00000BF022082F83D001068406820F0700005
:1013B00013685860106840680B68184313685860D9
:1013C0001068806820F0800013689860106880685A
:1013D0004B68184313689860012082F83D0000BFF5
:1013E000002082F83C0000BF00BFD5E710B50446DE
:1013F0000CB9012010BD94F83D0028B9002084F8F4
:101400003C00204600F00CF8022084F83D00211D2D
:10141000206801F0C5F9012084F83D000020E9E7CB
:1014200038B5044622492068884218D100BF002000
:1014300000902048006840F002001E4908600846FD
:10144000006800F00200009000BF00BF00221146BB
:101450001D20FFF7F7FB1D20FFF7E7FB27E01649EC
:10146000206888420FD100BF00200090114800681A
:1014700040F008000F4908600846006800F00800C6
:10148000009000BF13E00D49206888420FD100BFD3
:10149000002000900748006840F08000054908607F
:1014A0000846006800F08000009000BF00BF38BD13
:1014B0000004004040380240000C0040001C004086
:1014C00001460868C06840F001000A68D0600868FA
:1014D000006840F001000A68106000207047014673
:1014E0000868C06820F001000A68D06000BF086882
:1014F000006A41F21112104050B90868006A921057
:10150000104028B90868006820F001000A681060DF
:1015100000BF002070472DE9F04104460D4600262B
:1015200000BF94F83C00012802D10220BDE8F08100
:10153000012084F83C0000BF022084F83D002068B0
:10154000866826F0770626F47F462068866028683D
:1015500050283BD00CDC202860D004DC002853D07D
:10156000102865D155E030285DD0402860D141E099
:10157000602835D070280DD0B0F5805F03D0B0F56D
:10158000005F55D115E02068806820F007002168D1
:1015900088604EE0D5E902136A68206801F084F99A
:1015A0002068866826F0770646F077062068866011
:1015B0003FE0D5E902136A68206801F075F92068F8
:1015C000806840F480402168886032E0EA68696899
:1015D000206801F0B1FA5021206801F071F928E08B
:1015E000EA686968206801F0BCFA6021206801F0AF
:1015F00067F91EE0EA686968206801F09DFA4021F9
:10160000206801F05DF914E00021206801F058F92C
:101610000FE01021206801F053F90AE02021206832
:1016200001F04EF905E03021206801F049F900E0B1
:1016300000BF00BF012084F83D0000BF002084F8F7
:101640003C0000BF00BF71E7704710B5044620683A
:101650000069C0F34000D8B12068C068C0F3400002
:10166000B0B16FF002002168086101202077206886
:10167000806900F0030018B12046FFF7E5FF05E0A0
:10168000204600F0EDF8204600F0A4F90020207775
:1016900020680069C0F38000D8B12068C068C0F33A
:1016A0008000B0B16FF0040021680861022020774B
:1016B0002068806900F4407018B12046FFF7C4FF2D
:1016C00005E0204600F0CCF8204600F083F9002029
:1016D000207720680069C0F3C000D8B12068C068D6
:1016E000C0F3C000B0B16FF00800216808610420A9
:1016F00020772068C06900F0030018B12046FFF78A
:10170000A3FF05E0204600F0ABF8204600F062F9A8
:101710000020207720680069C0F30010D8B120684D
:10172000C068C0F30010B0B16FF01000216808610C
:10173000082020772068C06900F4407018B1204666
:10174000FFF782FF05E0204600F08AF8204600F00F
:1017500041F9002020772068006900F0010058B1AD
:101760002068C06800F0010030B16FF0010021680E
:101770000861204600F09AF920680069C0F3C010A3
:1017800058B12068C068C0F3C01030B16FF080005D
:10179000216808612046FFF7F6FD20680069C0F364
:1017A000801058B12068C068C0F3801030B16FF06D
:1017B000400021680861204600F0DDF920680069DA
:1017C000C0F3401058B12068C068C0F3401030B179
:1017D0006FF02000216808612046FFF7D5FD10BD9D
:1017E00010B586B004461A49206888421DD100BF52
:1017F000002000901748006840F00100154908607B
:101800000846006800F00100009000BF00BF012002
:101810000190022002900020039004900220059085
:1018200001A90D48FFF782F810E00C4920688842B2
:101830000CD14020019002200290002003900490DF
:101840000920059001A90448FFF770F806B010BD03
:10185000000C00403038024000000240001C0040F4
:10186000704770B504460D46164600BF94F83C001C
:10187000012801D1022070BD012084F83C0000BF86
:10188000022084F83D0036B1042E1BD0082E31D042
:101890000C2E5ED145E02946206801F01BF8206837
:1018A000806940F00800216888612068806920F024
:1018B00004002168886120688069296908432168DB
:1018C000886147E02946206801F03CF8206880697B
:1018D00040F40060216888612068806920F480609D
:1018E0002168886120688069296940EA01202168AF
:1018F00088612FE02946206801F060F82068C069FF
:1019000040F008002168C8612068C06920F0040028
:101910002168C8612068C069296908432168C861D5
:1019200018E02946206801F085F82068C06940F475
:1019300000602168C8612068C06920F48060216867
:10194000C8612068C069296940EA01202168C8612E
:1019500000E000BF00BF012084F83D0000BF002070
:1019600084F83C0000BF00BF85E710B504460CB901
:10197000012010BD94F83D0028B9002084F83C00F7
:10198000204600F00DF8022084F83D00211D20685B
:1019900000F006FF012084F83D000020E9E7000088
:1019A00008B50A4A016891420FD100BF0021009199
:1019B0000749096841F00801054A116011460968A4
:1019C00001F00801009100BF00BF08BD000C0040FD
:1019D000403802407047000030B504460D460122F1
:1019E0002946206800F052FF0C492068884203D045
:1019F0000B492068884201D1012000E0002028B175
:101A00002068406C40F40040216848642068006809
:101A100040F0010021680860002030BD0000014056
:101A20000004014030B504460D46002229462068D6
:101A300000F02CFF1B492068884203D01A49206817
:101A4000884201D1012000E0002090B100BF206851
:101A5000006A41F21111084050B92068006A8910EB
:101A6000084028B92068406C20F400402168486490
:101A700000BF00BF2068006A41F21111084050B950
:101A80002068006A8910084028B92068006820F0A2
:101A900001002168086000BF012084F83D0000209B
:101AA00030BD0000000001400004014010B50446B4
:101AB00015492068884225D114480068401C134904
:101AC0000860084600686421B0FBF1F201FB1200D7
:101AD00020B90F480068401C0D4908600B48006899
:101AE0000C49096888420DD80B48006850B907486E
:101AF00000680A490968B0FBF1F201FB120008B95D
:101B000001F042FF10BD000000040040B4000020BE
:101B1000C00000200000002038000020B800002095
:101B200070B504460D4600BF94F83C00012801D171
:101B3000022070BD012084F83C0000BF022084F820
:101B40003D002946204600F0A5FF2068C06820F02F
:101B500040002168C8602068C06820F48040216887
:101B6000C860012084F83D0000BF002084F83C00DC
:101B700000BF00BFDDE77047704700002DE9F04768
:101B80000446206805682068C668206847694FF0E9
:101B90000008C14605F00F08B8F1000F0AD105F0A2
:101BA000200038B106F0200020B1204601F019F8DD
:101BB000BDE8F087B8F1000F6DD007F0010018B94B
:101BC00006F49070002866D005F0010030B106F4EC
:101BD000807018B1E06B40F00100E06305F0040094
:101BE00030B107F0010018B1E06B40F00200E06393
:101BF00005F0020030B107F0010018B1E06B40F0D1
:101C00000400E06305F0080030B107F0010018B1EE
:101C1000E06B40F00800E063E06B68B305F0200083
:101C200028B106F0200010B1204600F0DAFF20684D
:101C30004069C0F38019E06B00F0080010B9B9F1F9
:101C4000000F22D0204600F0ACFF2068406900F071
:101C50004000B0B12068406920F040002168486130
:101C6000606B50B11748616B0865606BFEF750FC04
:101C700010B1606B016D88470CE02046FFF77CFFD8
:101C800008E02046FFF778FF04E02046FFF774FFE6
:101C90000020E0638CE705F0800030B106F08000A2
:101CA00018B1204601F09EF982E705F0400030B1FE
:101CB00006F0400018B1204600F083FF78E700BF2F
:101CC00076E700008F2B000810B504460CB9012000
:101CD00010BDA06900B100E000BF94F8390028B938
:101CE000002084F83800204600F028F8242084F8EA
:101CF00039002068C06820F400502168C860204680
:101D000000F0BCFF2068006920F490402168086161
:101D10002068406920F02A00216848612068C06876
:101D200040F400502168C8600020E063202084F85F
:101D3000390084F83A000020CAE7000010B586B0E8
:101D4000044632492068884234D100BF0020009008
:101D50002F48006840F480102D490860084600684C
:101D600000F48010009000BF00BF88140190022092
:101D7000029001200390032004900820059001A9FF
:101D80002448FEF7D3FD0420019002200290012098
:101D90000390032004900820059001A91E48FEF737
:101DA000C5FD002202213520FEF74CFF3520FEF74D
:101DB0003CFF29E019492068884225D100BF002056
:101DC00000901348006840F400301149086008464C
:101DD000006800F40030009000BF00BF0C200190AC
:101DE0000220029001200390032004900720059018
:101DF00001A90B48FEF79AFD002211462620FEF7A6
:101E000021FF2620FEF711FF06B010BD0050004054
:101E10004038024000080240000C024000440040EC
:101E20000000024010B5034693F83A00202829D15B
:101E300001B10AB9012010BD00BF93F83800012894
:101E400001D10220F7E7012083F8380000BF996232
:101E50009A85DA850020D863222083F83A0000BFF3
:101E6000002083F8380000BF1868406940F0010086
:101E70001C6860611868C06840F490701C68E0607D
:101E80000020D8E70220D6E738B504466F488442E0
:101E90001ED100BF002000906C48006800680090D0
:101EA0006A4800684068009000BF00BF012268498E
:101EB0006648FFF7B7FF664800786649664A1288A9
:101EC000885408460078502803D0002062490880D2
:101ED000BBE061480088012807D15E4840784F2860
:101EE00003D000205C490880AFE05B4800881428DC
:101EF0007DD158480079012847D158490860554894
:101F000040795449897940EA01205549086051488F
:101F1000007B00064F49C97A40EA01404D49897A61
:101F200040EA01204B49497A08434E4908604C4831
:101F30000068B0F5966F04D14B480068401C4A49D0
:101F400008604748006840F69801884204D1474835
:101F50000068401C45490860434845A1026847485D
:101F600001F0B6F8414846A10268484801F0B0F8CF
:101F7000424800F063F900F04FF9444800F05EF980
:101F800000F04AF901F032FC22E0324800790C28D6
:101F90000CD1324908602F4840792E49897940EAAE
:101FA00001202F49086001F021FC11E02948007947
:101FB00004280DD13648006838B904202749086044
:101FC000344800682649086002E001203249086070
:101FD0002048007903282FD101202D4908600220D4
:101FE0001E4908601B4840791A49897900E027E0BA
:101FF00040EA01201A4908601648007B000615498E
:10200000C97A40EA01401349897A40EA012011491E
:10201000497A0843134908600E48007C00060D49C0
:10202000C97B40EA01400B49897B40EA012009490C
:10203000497B08431949086000200749088004E0EB
:1020400005480088401C0449088038BD0002002073
:1020500009000020A8010020F0000020440000201A
:1020600000000020B8000020D0000020D400002094
:102070006E312E76616C3D25640000008A010020DF
:102080006E322E76616C3D256400000094010020C4
:1020900038000020040000203C000020BC0000208C
:1020A0002DE9F84304460D4616461F464FF0000939
:1020B00094F8390020285CD105B116B90120BDE89B
:1020C000F88300BF94F83800012801D10220F6E718
:1020D000012084F8380000BF0020E063212084F84C
:1020E0003900FEF737FD8146A684E6842BE0E08CBC
:1020F000401EE084A068B0F5805F16D14B460022F8
:1021000080212046009700F0A1FF08B10320D6E708
:10211000A846B8F80000C0F30800216848602069AC
:1021200008B9AD1C0FE06D1C0DE04B46002280216C
:102130002046009700F08AFF08B10320BFE715F89A
:10214000010B21684860E08C0028D0DC4B4600225F
:1021500040212046009700F079FF08B10320AEE748
:10216000202084F8390000BF002084F8380000BF28
:10217000A5E70220A3E710B5034693F8390020280D
:1021800023D101B10AB9012010BD00BF93F8380076
:10219000012801D10220F7E7012083F8380000BFB1
:1021A00019629A84DA840020D863212083F83900E8
:1021B00000BF002083F8380000BF1868C06840F0F6
:1021C00080001C68E0600020DEE70220DCE7000001
:1021D00038B504460D48844216D100BF0020009057
:1021E0000A4800680068009008480068406800904D
:1021F00000BF00BF012206490448FFF7BCFF0548A5
:102200000068401C0349086038BD0000000200203F
:1022100009000020C800002008B5FF208DF800004C
:102220008DF801008DF8020014230322694602484C
:10223000FFF736FF08BD0000C001002070B504465E
:10224000207850B12046FDF7FCFF85B214232A46C2
:1022500021460348FFF724FF00E070BD00BFFCE704
:10226000C001002000BFFEE700B587B000BF00201E
:1022700001906C48006840F080006A490860084698
:10228000006800F08000019000BF00BF00BF002088
:1022900001900846006840F00400086008460068A5
:1022A00000F00400019000BF00BF00BF00200190BB
:1022B0000846006840F0010008600846006800F029
:1022C0000100019000BF00BF00BF00200190084640
:1022D000006840F0080008600846006800F0080048
:1022E000019000BF00BF00BF0020019008460068B9
:1022F00040F0100008600846006800F010000190EF
:1023000000BF00BF002230214748FEF71DFC00221D
:102310004FF440514548FEF717FC0022182143486E
:10232000FEF712FC002210214148FEF70DFC1020A0
:1023300002900120039004900020059002A93A48E1
:10234000FEF7F4FA20200290012003900490002070
:10235000059002A93448FEF7E9FA4FF44050029084
:102360000120039004900020059002A92F48FEF759
:10237000DDFA012002902F4803900120049002A969
:102380002B48FEF7D3FA022002902A48039001203E
:10239000049002A92648FEF7C9FA102002902548A9
:1023A00003900120049002A92148FEF7BFFA1820EB
:1023B000029020480390012004900020059002A97B
:1023C0001A48FEF7B3FA802002900120039004908F
:1023D0000020059002A91648FEF7A8FA012208215C
:1023E0001248FEF7B1FB0820029000200390012064
:1023F00004900020059002A90C48FEF797FA0122EC
:1024000010210A48FEF7A0FB102002900020039044
:10241000012004900020059002A90448FEF786FAE6
:1024200007B000BD3038024000080240000C0240F6
:10243000001002400000111000B587B0142102A85E
:10244000FDF7F4FE0020009001901848184908603C
:102450000020486000211648816040F22E31C160A2
:102460000021016180218161FEF7C0FF18B1512177
:1024700010A000F02BFE072002902020039002A95C
:102480000B48FFF74DFB18B157210AA000F01EFEC4
:1024900000200090019069460548FEF776FF18B1CC
:1024A0005D2104A000F012FE07B000BD0004004052
:1024B000280300202E2E2F5372632F74696D2E6314
:1024C0000000000000B58DB0002009900A900B902C
:1024D0000C90079008901C216846FDF7A7FE27483E
:1024E000274908600520486000212548816040F2A6
:1024F000E731C1600021016180218161FEF776FF33
:1025000018B175211FA000F0E1FD4FF48050099033
:1025100009A91B48FEF7FFFF18B17A2119A000F0A6
:10252000D5FD1748FFF721FA18B17E2115A000F05C
:10253000CDFD202007900020089007A91048FEF745
:1025400024FF18B185210FA000F0C0FD602000908D
:102550004FF4FA7001900020029004900022694626
:102560000748FFF77EF918B18E2106A000F0AEFDF6
:102570000348FFF735F90DB000BD0000000C004026
:10258000680300202E2E2F5372632F74696D2E6303
:102590000000000010B50C480C4908604FF4E12021
:1025A0004860002109488160C16001610C214161DE
:1025B00000218161C161FFF787FB18B1562104A09A
:1025C00000F084FD10BD0000004400400002002027
:1025D0002E2E2F5372632F75736172742E63000059
:1025E00010B50C480C4908604FF4165048600021A3
:1025F00009488160C16001610C2141610021816154
:10260000C161FFF761FB18B1432104A000F05EFD3A
:1026100010BD000000500040C00100202E2E2F539E
:1026200072632F75736172742E63000000BFFEE742
:102630007047000002480068C0F3022070470000A5
:102640000CED00E010B5002807DA0A07140E054A61
:1026500000F00F031B1FD45403E00A07130E024AB5
:10266000135410BD18ED00E000E400E0704701468F
:1026700008687047704710B5FEF772FAFEF77FFEE4
:1026800010BD000010B592B0012006900790022006
:102690000C9041050D910A210E91C8210F91022144
:1026A00010910521119106A8FEF76AFC20B14FF4A4
:1026B000C47116A000F00AFD0F20019002200290C4
:1026C000002003904FF4A05004904FF480500590E8
:1026D000032101A8FEF708FB20B14FF4CB710BA03A
:1026E00000F0F4FCFEF7C2FB4FF47A71B0FBF1F49A
:1026F0002046FEF72AFE0420FEF712FE00221146B5
:10270000501EFEF79FFA12B010BD00002E2E2F5360
:1027100072632F6D61696E2E6300000010480068BF
:1027200040F001000E49086000200D4908310860A2
:102730000B4800680B490840094908600A48091D10
:102740000860081F006820F48020091F086000202E
:1027500003490C3108604FF000600449086070477D
:1027600000380240FFFFF6FE1030002408ED00E0C4
:1027700010B50248FEF769FF10BD000028030020D5
:1027800010B50248FEF761FF10BD0000A80300204D
:1027900010B50248FEF759FF10BD0000E803002005
:1027A000002202682E4B98420ED0B0F1804F0BD021
:1027B0002C4B984208D02C4B984205D02B4B98427A
:1027C00002D02B4B984201D1012300E000231BB122
:1027D00022F070024B681A43214B984220D0B0F18E
:1027E000804F1DD01F4B98421AD01F4B984217D0D4
:1027F0001E4B984214D01E4B984211D01D4B98424C
:102800000ED01D4B98420BD01C4B984208D01C4B4D
:10281000984205D01B4B984202D01B4B984201D1E5
:10282000012300E000231BB122F44072CB681A435D
:1028300022F080024B691A4302608B68C3620B6806
:102840008362074B984202D0094B984201D1012381
:1028500000E000230BB10B69036301234361704760
:10286000000001400004004000080040000C00404F
:102870000004014000400140004401400048014084
:1028800000180040001C00400020004030B500232C
:10289000012404FA01F3046A9C430462046A02FA04
:1028A00001F52C43046230BD30B50C46002181682F
:1028B00021F47F4142EA032525432943816030BD4D
:1028C0000A460021816821F0700142F00703194394
:1028D0008160704730B5002400220023056A25F08E
:1028E00001050562026A4368846924F0700424F0DB
:1028F00003040D682C4322F002028D682A430F4D19
:10290000A84202D00E4DA84201D1012500E00025C9
:102910006DB122F00802CD682A4322F0040223F4AC
:10292000807323F400734D692B438D692B434360FF
:1029300084614D684563026230BD000000000140C3
:102940000004014030B5002400220023056A25F070
:1029500010050562026A4368846924F4E04424F4A3
:1029600040740D6844EA052422F020028D6842EA92
:102970000512104DA84202D00F4DA84201D10125E9
:1029800000E0002585B122F08002CD6842EA051200
:1029900022F0400223F4806323F400634D6943EA8C
:1029A00085038D6943EA8503436084614D688563CF
:1029B000026230BD000001400004014030B5002437
:1029C00000220023056A25F480750562026A4368C7
:1029D000C46924F0700424F003040D682C4322F42D
:1029E00000728D6842EA0522104DA84202D0104DB7
:1029F000A84201D1012500E0002585B122F4006242
:102A0000CD6842EA052222F4806223F4805323F445
:102A100000534D6943EA05138D6943EA051343608A
:102A2000C4614D68C563026230BD00000000014012
:102A30000004014030B5002200230024056A25F47B
:102A400080550562036A4468C26922F4E04222F4B8
:102A500040720D6842EA052223F400538D6843EA70
:102A600005330A4DA84202D0094DA84201D10125E3
:102A700000E0002525B124F480444D6944EA851422
:102A80004460C2614D680564036230BD00000140CE
:102A9000000401402DE9F04104460D4600260027C0
:102AA000B0462068866826F070066868064326F0FF
:102AB00007062868064320688660686800F00F01F2
:102AC000002935D10011082832D2DFE800F02D2E80
:102AD0002F300B212704D5E90313AA682068FFF7DC
:102AE000E3FE26E02068D0F820802068006A20F00D
:102AF0000100216808622068876927F0F0072869CB
:102B000047EA0017206887612068C0F8208010E03D
:102B10002A69A968206800F00FF80AE02A69A96804
:102B2000206800F01EF804E003E002E001E000E0AD
:102B300000BF00BFBDE8F08130B50B461446002150
:102B40000022026A056A25F001050562816921F00B
:102B5000F00141EA041122F00A021A438161026283
:102B600030BD30B50B46144600210022056A25F021
:102B7000100505628169026A21F4704141EA04315D
:102B800022F0A00242EA03128161026230BD70B5F8
:102B90000546AC6B0020E085E0842046FEF7ECFFA4
:102BA00070BD0168C96821F490710268D160016844
:102BB000496921F0010102685161202180F83A1031
:102BC000704710B504462068C06820F040002168B6
:102BD000C860202084F839002046FFF7F9FA002069
:102BE00010BD70B5044694F83A00222844D1A0687C
:102BF000B0F5805F13D1A56A206940B920684068AC
:102C0000C0F308002880A06A801CA06219E0206838
:102C10004068C0B22880A06A401CA06211E0206910
:102C200038B920684068C1B2A26A501CA062117015
:102C300007E02068406800F07F01A26A501CA06293
:102C40001170E08D401E80B2E08598B92068C068A0
:102C500020F490702168C8602068406920F001006D
:102C600021684861202084F83A002046FFF70CF9DB
:102C7000002070BD0020FCE70220FAE72DE9F041BA
:102C8000044600252068056925F44055E0680543A1
:102C9000206805612068C56849F20C608543216998
:102CA000A068084361690843E16908430543206857
:102CB000C5602068456925F44075A0690543206812
:102CC0004561E069B0F5004F7ED1C4492068884273
:102CD00003D0C349206888425DD1FEF7E3F800EBDA
:102CE000C00101EB001061684900B0FBF1F0642104
:102CF000B0FBF1F00601FEF7D5F800EBC00101EBE7
:102D0000001061684900B0FBF1F7FEF7CBF800EB6B
:102D1000C00101EB001061684900B0FBF1F06421D3
:102D2000B0FBF1F000EBC00101EB0010A7EB80005D
:102D3000322101EBC0006421B0FBF1F000F0F8009B
:102D400006EB4006FEF7AEF800EBC00101EB001009
:102D500061684900B0FBF1F7FEF7A4F800EBC00191
:102D600001EB001061684900B0FBF1F06421B0FB99
:102D7000F1F000EBC00101EB0010A7EB8000322165
:102D800001EBC0006421B0FBF1F000F0070030441B
:102D90002168886020E1FEF76FF800EBC00101EBCD
:102DA000001061684900B0FBF1F06421B0FBF1F064
:102DB0000601FEF761F800EBC00101EB001061684D
:102DC0004900B0FBF1F700E045E0FEF755F800EBF5
:102DD000C00101EB001061684900B0FBF1F0642113
:102DE000B0FBF1F000EBC00101EB0010A7EB80009D
:102DF000322101EBC0006421B0FBF1F000F0F800DB
:102E000006EB4006FEF738F800EBC00101EB0010BE
:102E100061684900B0FBF1F7FEF72EF800EBC00146
:102E200001EB001061684900B0FBF1F06421B0FBD8
:102E3000F1F000EBC00101EB0010A7EB80003221A4
:102E400001EBC0006421B0FBF1F000F0070030445A
:102E500021688860C0E061492068884203D06049E9
:102E6000206888425CD1FEF71DF800EBC00101EB41
:102E7000001061688900B0FBF1F6FEF713F800EB73
:102E8000C00101EB001061688900B0FBF1F0642122
:102E9000B0FBF1F000EBC00101EB0010A6EB8000ED
:102EA000322101EB00106421B0FBF1F000F0F006DC
:102EB000FDF7F8FF00EBC00101EB0010616889002D
:102EC000B0FBF1F06421B0FBF1F006EB0016FDF76A
:102ED000E9FF00EBC00101EB001061688900B0FB65
:102EE000F1F7FDF7DFFF00EBC00101EB00106168B7
:102EF0008900B0FBF1F06421B0FBF1F000EBC00100
:102F000001EB0010A7EB8000322101EB00106421DF
:102F1000B0FBF1F000F00F003044216888605BE006
:102F2000FDF7AAFF00EBC00101EB0010616889000A
:102F3000B0FBF1F6FDF7A0FF00EBC00101EB0010C4
:102F400061688900B0FBF1F06421B0FBF1F000EBA7
:102F5000C00101EB0010A6EB8000322101EB001054
:102F60006421B0FBF1F000F0F006FDF785FF00EB07
:102F7000C00101EB001061688900B0FBF1F0642131
:102F8000B0FBF1F006EB0016FDF776FF00EBC00199
:102F900001EB001061688900B0FBF1F7FDF76CFFF1
:102FA00000EBC00101EB001061688900B0FBF1F09B
:102FB0006421B0FBF1F000EBC00101EB0010A7EBC6
:102FC0008000322101EB00106421B0FBF1F000F031
:102FD0000F00304421688860BDE8F0810010014096
:102FE00000140140014691F8390021282CD188684D
:102FF000B0F5805F0FD10A6A1088C0F308000B6833
:103000005860086918B9086A801C086209E0086AF3
:10301000401C086205E00B6A581C086218780B68AF
:103020005860C88C401E80B2C88458B90868C0680F
:1030300020F080000B68D8600868C06840F040004D
:103040000B68D860002070470220FCE72DE9F041B2
:1030500004460D4617469846069E21E0701CF8B1BE
:103060002EB1FDF777FDA0EB0800B04218D920681B
:10307000C06820F4D0702168C8602068406920F0E2
:10308000010021684861202084F8390084F83A0062
:1030900000BF002084F8380000BF0320BDE8F081A5
:1030A000206800682840A84201D1012000E00020EB
:1030B000B842D3D00020F1E710B50248FEF75EFD1C
:1030C00010BD00000002002000BFFEE700BFFEE7C9
:1030D0000FB4084B10B504A902AA039800F01CF81D
:1030E000044602A9002000F0C1F8204610BC5DF89B
:1030F00014FB00006D32000802E008C8121F08C16E
:10310000002AFAD170477047002001E001C1121F68
:10311000002AFBD1704700002DE9FF4F89B09B4684
:103120000446002506E025280BD05A460B99904707
:10313000641C6D1C20780028F5D10DB02846BDE830
:10314000F08F0027B8460122474900E0074314F8F2
:10315000013F203B02FA03F00842F7D120782E28E5
:1031600019D114F8010F47F004072A280ED06FF088
:103170002F022078A0F1300109290CD808EB880132
:1031800002EB410100EB0108641CF2E70A98641CA1
:1031900050F8048B0A9020780028CED0642808D0FC
:1031A000692806D075281ED05A460B9990476D1C89
:1031B00058E00A994FF00A0901C90A91002802DA79
:1031C00040422D2102E0390504D52B218DF8201035
:1031D000012103E0F90704D02021F7E78A4608AE71
:1031E0000DE00021FAE70A994FF00A0901C90A9196
:1031F000F7E74946FDF72CF8303106F8011D0028A5
:10320000F7D1ADEB060000F12009780701D44FF0AB
:103210000108C84502DDA8EB090000E00020804657
:10322000002706E008A85A46C05D0B9990476D1C20
:103230007F1C5745F6DB04E030205A460B99904737
:103240006D1CB8F10001A8F10108F5DC05E016F8E5
:10325000010B5A460B9990476D1CB9F10001A9F179
:103260000109F4DC641C65E7092801000A68531CA5
:103270000B601070704700000024FDF779FCFFF729
:1032800001FAFEF7F1FF00F007FAFFF7D5F8FFF7B4
:1032900019F90520FDF714FDFFF77CF9FFF7A0F9F8
:1032A0000122A549A548FEF7BDFDFEF7B5FFC820E0
:1032B000FDF762FA00F064F93DE1A148006848BBFF
:1032C0000821A048FDF738FC48B901209E49086054
:1032D00041F6AE719C48006800F0BCFA19E010217C
:1032E0009848FDF729FC78B910219848FDF724FC8F
:1032F00050B14FF0FF309449086041F6AE719248EA
:10330000006800F0A7FA04E000218F48006800F090
:10331000A1FA10E18E48006810B1012811D103E034
:103320000120894908601AE0854800680C2803D10B
:10333000002083490860FEE04FF0FF3082490860BA
:103340000DE000207E4908608249086082490860DB
:1033500082490860824908607D490860EBE000BF4F
:103360008048006800287DD17D48006846387B4948
:103370000968884202D900F0EBFADBE0784800687F
:1033800046387649096888420BD874480068744901
:103390000968884205D26E48006810B900F0BEFA8C
:1033A000C8E06F48006846386C49096888420CD804
:1033B0006B480068801E69490968884205D96448DD
:1033C000006810B100F0AAFAB4E0644800686449EB
:1033D0000968884221D35C48006801281DD100217A
:1033E0005948006800F036FA00205A4908605A49E6
:1033F00008605A4908605A4800685B49086000F054
:10340000DBF94FF4FA60FDF7B7F951480068401C4A
:103410004F49086000F0B8FA8CE04FF47A614A48EE
:10342000006800F017FA4A4800680128A5D1102169
:103430004648FDF781FB4D49087008460078002892
:1034400078D100214048006800F004FA484800683C
:10345000401C4749086000F0B1FAC8203C490860A8
:1034600068E0FFE73D4800683D490968884243D865
:103470003A4800683F490968B0FBF1F201FB1200CD
:1034800098BB3348006880BB3448006801282DD9B8
:103490000021084600F0DEF94FF4FA60FDF76CF900
:1034A0003548006870B9002405E000F0B9F90A2039
:1034B000FDF762F9641C012CF7DB2F480068401C03
:1034C0002D4908602D480068012815D100202B499E
:1034D00008602949086041F288311B48006800F003
:1034E000B9F9C820FDF748F906E0FFE741F2883155
:1034F0001548006800F0AEF91848006818490968D6
:10350000884217D900211048006800F0A3F9002074
:10351000144908600E480068401C0D4908600020EE
:103520000C4908600C4908600C4908600C480068A8
:103530000D49086000BFC0E609000020000200201D
:1035400044000020000C02401C000020001002403B
:10355000EC000020B0000020A4000020B4000020F7
:10356000000000203800002004000020AE000020F1
:10357000C0000020B8000020400000203C000020D7
:1035800010B5FDF75FF92F48FFF771F82E49086075
:1035900008460068401C08B9002008602A480268F4
:1035A0002AA12D48FFF794FD2B48FEF747FEFEF7B2
:1035B00033FE24480C38FFF75AF8284908600846BB
:1035C0000068401C08B900200860244824A1026853
:1035D0002648FFF77DFD2548FEF730FEFEF71CFE6E
:1035E00018480838FFF743F8214908600846006882
:1035F000401C08B9002008601D481EA10268204830
:10360000FFF766FD1E48FEF719FEFEF705FE0D48A2
:10361000001FFFF72CF81B49086008460068401C93
:1036200008B9002008601748026817A11948FFF779
:103630004FFD1848FEF702FEFEF7EEFDFDF7ACF871
:1036400010BD000010800008C00000206E302E76F3
:10365000616C3D256400000058010020D00000206E
:103660006E312E76616C3D25640000008A010020D9
:10367000D40000206E322E76616C3D25640000007F
:1036800094010020C40000206A302E76616C3D2534
:10369000640000009E01002010B586B0142101A82E
:1036A000FCF7C4FD00224FF400513C48FDF74CFAF2
:1036B00000224FF480713A48FDF746FA00224FF499
:1036C000D8513648FDF740FA01224FF49061334853
:1036D000FDF73AFA00224FF458413248FDF734FA28
:1036E00001224FF410512F48FDF72EFA012242F229
:1036F00002012D48FDF728FA42F202100190012044
:103700000290002003900220049001A92648FDF7B2
:103710000DF94FF47E50019001200290002003909B
:103720000220049001A91D48FDF700F94FF47C40E8
:10373000019001200290002003900220049001A932
:103740001848FDF7F3F8194C00BF2000A4F101045C
:10375000FBD100224FF400511048FDF7F5F900228B
:103760004FF480710E48FDF7EFF9114C00BF2000B7
:10377000A4F10104FBD1012251030848FDF7E4F94B
:10378000012211020648FDF7DFF90A4C00BF2000B4
:10379000A4F10104FBD106B010BD000000100240EE
:1037A00000000240000C024000040240C0C62D0090
:1037B000808D5B0080C3C9011CB550208DF80000CE
:1037C0004F208DF8010053208DF8020049208DF81C
:1037D000030012208DF804001423052269460248D4
:1037E000FEF75EFC1CBD0000000200201CB550204E
:1037F0008DF800004F208DF8010053208DF8020055
:1038000049208DF8030013208DF8040014230522AD
:1038100069460248FEF744FC1CBD0000000200207F
:103820001CB550208DF800004F208DF8010053206A
:103830008DF8020049208DF8030014208DF8040053
:103840001423052269460248FEF72AFC1CBD00002D
:103850000002002070B505460C4629480068A842C1
:1038600004D128480068A04200D170BD24480560FA
:1038700024480460012D08D1012210212248FDF7BF
:1038800063F90120FCF778FF09E0681C38B90022D1
:1038900010211D48FDF758F90120FCF76DFF012CA0
:1038A00022DB1A4890FBF4F0401E19490968C862EF
:1038B000164991FBF4F000EBD0714910144A1268DC
:1038C000516314480068C8B96FF0010012490968D3
:1038D00008611148FDF7F4FD00210D48FEF77CF862
:1038E00001200C49086009E00B48FDF7F8FD0021B4
:1038F0000748FEF797F800200649086000BFB4E7C4
:10390000F4000020F8000020000802408096980093
:1039100068030020FC0000202803002010B50A489E
:103920000068B0F57A6F0ED907480068A0F54870B6
:10393000054908600846016804480068FFF78AFFE7
:103940003220FCF719FF10BDA40000201C0000204D
:1039500010B50B48006849F6404188420ED208482D
:10396000006800F57A700649086008460168054855
:103970000068FFF76FFF5020FCF7FEFE10BD00004F
:10398000A40000201C0000201CB550208DF8000071
:103990004F208DF8010053208DF8020049208DF84A
:1039A000030011208DF80400142305226946024803
:1039B000FEF776FB1CBD00000002002010B5FCF7EE
:1039C00041FF02210846FCF7A1FC114802680023D0
:1039D00010490220FCF7EAFE0F4800230D490C397C
:1039E00002680220FCF7E2FE0C480023094908396E
:1039F00002680220FCF7DAFE094802680023054944
:103A0000091F0220FCF7D2FEFCF7C6FE10BD000025
:103A1000C000002010800008D0000020D40000204A
:103A2000C4000020000000000000000001020304A8
:103A30000607080900000000010203045C3A0008C0
:103A40000000002008010000F8300008643B000876
:103A5000080100204007000008310008B004000001
:103A60000000000000000000000000000000000056
:103A70000000000000000000000000000000000046
:103A80000000000000000000000000000000000036
:103A90000000000000000000000000000000000026
:103AA0000000000000000000000000000000000016
:103AB0000000000000000000000000003D000000C9
:103AC0009B010000F9020000570400000000000004
:103AD0005A000000960000004D02000060600000E7
:103AE0000000000000000000FFFFFFFFFFFFFFFFDE
:103AF000FFFFFFFF000000000000000000000000CA
:103B000000000000000000000000000000000000B5
:103B100000000000000000000000000000000000A5
:103B20000000000000000000000000000000000095
:103B30000000000000000000000000000000000085
:103B40000000000000000000000000000000000075
:103B5000000000000000000000000000001BB70093
:043B60000000000061
:040000050800018569
:00000001FF
